{
  "contractName": "SchoolChainCore",
  "abi": [
    {
      "constant": true,
      "inputs": [
        {
          "name": "",
          "type": "address"
        }
      ],
      "name": "lecturerIds",
      "outputs": [
        {
          "name": "",
          "type": "uint256"
        }
      ],
      "payable": false,
      "stateMutability": "view",
      "type": "function"
    },
    {
      "constant": true,
      "inputs": [],
      "name": "vc",
      "outputs": [
        {
          "name": "",
          "type": "address"
        }
      ],
      "payable": false,
      "stateMutability": "view",
      "type": "function"
    },
    {
      "constant": true,
      "inputs": [
        {
          "name": "",
          "type": "uint256"
        }
      ],
      "name": "lecturerAccounts",
      "outputs": [
        {
          "name": "",
          "type": "address"
        }
      ],
      "payable": false,
      "stateMutability": "view",
      "type": "function"
    },
    {
      "constant": true,
      "inputs": [
        {
          "name": "",
          "type": "address"
        }
      ],
      "name": "departmentLeads",
      "outputs": [
        {
          "name": "",
          "type": "uint256"
        }
      ],
      "payable": false,
      "stateMutability": "view",
      "type": "function"
    },
    {
      "constant": false,
      "inputs": [
        {
          "name": "_department",
          "type": "uint256"
        }
      ],
      "name": "_getDepartment",
      "outputs": [
        {
          "name": "",
          "type": "bytes32"
        }
      ],
      "payable": false,
      "stateMutability": "nonpayable",
      "type": "function"
    },
    {
      "constant": false,
      "inputs": [
        {
          "name": "_name",
          "type": "bytes32"
        },
        {
          "name": "depositsToDepartment",
          "type": "uint256"
        }
      ],
      "name": "_createDepartment",
      "outputs": [
        {
          "name": "",
          "type": "uint256"
        }
      ],
      "payable": false,
      "stateMutability": "nonpayable",
      "type": "function"
    },
    {
      "constant": true,
      "inputs": [
        {
          "name": "",
          "type": "uint256"
        }
      ],
      "name": "sessions",
      "outputs": [
        {
          "name": "name",
          "type": "bytes32"
        },
        {
          "name": "sessionID",
          "type": "uint256"
        }
      ],
      "payable": false,
      "stateMutability": "view",
      "type": "function"
    },
    {
      "constant": false,
      "inputs": [
        {
          "name": "_studentAddress",
          "type": "address"
        },
        {
          "name": "studentName",
          "type": "bytes32"
        },
        {
          "name": "departmentID",
          "type": "uint256"
        }
      ],
      "name": "_createStudent",
      "outputs": [],
      "payable": false,
      "stateMutability": "nonpayable",
      "type": "function"
    },
    {
      "constant": true,
      "inputs": [
        {
          "name": "",
          "type": "address"
        }
      ],
      "name": "studentIds",
      "outputs": [
        {
          "name": "",
          "type": "uint256"
        }
      ],
      "payable": false,
      "stateMutability": "view",
      "type": "function"
    },
    {
      "constant": false,
      "inputs": [
        {
          "name": "_newVC",
          "type": "address"
        },
        {
          "name": "_formerVC",
          "type": "address"
        }
      ],
      "name": "setVC",
      "outputs": [],
      "payable": false,
      "stateMutability": "nonpayable",
      "type": "function"
    },
    {
      "constant": true,
      "inputs": [
        {
          "name": "",
          "type": "uint256"
        }
      ],
      "name": "levels",
      "outputs": [
        {
          "name": "name",
          "type": "bytes32"
        },
        {
          "name": "generalFees",
          "type": "uint256"
        }
      ],
      "payable": false,
      "stateMutability": "view",
      "type": "function"
    },
    {
      "constant": true,
      "inputs": [
        {
          "name": "",
          "type": "uint256"
        }
      ],
      "name": "studentAccounts",
      "outputs": [
        {
          "name": "",
          "type": "address"
        }
      ],
      "payable": false,
      "stateMutability": "view",
      "type": "function"
    },
    {
      "constant": false,
      "inputs": [
        {
          "name": "_lecturerAddress",
          "type": "address"
        },
        {
          "name": "lecturerName",
          "type": "bytes32"
        },
        {
          "name": "departmentID",
          "type": "uint256"
        }
      ],
      "name": "_createLecturer",
      "outputs": [],
      "payable": false,
      "stateMutability": "nonpayable",
      "type": "function"
    },
    {
      "constant": true,
      "inputs": [],
      "name": "dean",
      "outputs": [
        {
          "name": "",
          "type": "address"
        }
      ],
      "payable": false,
      "stateMutability": "view",
      "type": "function"
    },
    {
      "constant": true,
      "inputs": [
        {
          "name": "",
          "type": "uint256"
        }
      ],
      "name": "departments",
      "outputs": [
        {
          "name": "name",
          "type": "bytes32"
        }
      ],
      "payable": false,
      "stateMutability": "view",
      "type": "function"
    },
    {
      "inputs": [
        {
          "name": "_proposedVCAddress",
          "type": "address"
        }
      ],
      "payable": false,
      "stateMutability": "nonpayable",
      "type": "constructor"
    },
    {
      "anonymous": false,
      "inputs": [
        {
          "indexed": false,
          "name": "_student",
          "type": "address"
        },
        {
          "indexed": false,
          "name": "studentID",
          "type": "uint256"
        }
      ],
      "name": "StudentCreated",
      "type": "event"
    },
    {
      "anonymous": false,
      "inputs": [
        {
          "indexed": false,
          "name": "_lecturer",
          "type": "address"
        },
        {
          "indexed": false,
          "name": "lecturerID",
          "type": "uint256"
        }
      ],
      "name": "LecturerCreated",
      "type": "event"
    },
    {
      "anonymous": false,
      "inputs": [
        {
          "indexed": false,
          "name": "departmentId",
          "type": "uint256"
        },
        {
          "indexed": false,
          "name": "name",
          "type": "bytes32"
        }
      ],
      "name": "DepartmentCreated",
      "type": "event"
    },
    {
      "anonymous": false,
      "inputs": [
        {
          "indexed": false,
          "name": "levelId",
          "type": "uint256"
        }
      ],
      "name": "LevelCreated",
      "type": "event"
    },
    {
      "anonymous": false,
      "inputs": [
        {
          "indexed": false,
          "name": "_vc",
          "type": "address"
        }
      ],
      "name": "NewVC",
      "type": "event"
    }
  ],
  "bytecode": "0x608060405234801561001057600080fd5b50604051602080610eac8339810180604052810190808051906020019092919050505033600760006101000a81548173ffffffffffffffffffffffffffffffffffffffff021916908373ffffffffffffffffffffffffffffffffffffffff16021790555050610e28806100846000396000f3006080604052600436106100db576000357c0100000000000000000000000000000000000000000000000000000000900463ffffffff168063157e209e146100e0578063188cdb37146101375780634bd5e6801461018e5780634bfa314c146101fb5780634c7d54a414610252578063584805821461029b57806383c4b7a3146102ea5780638660f0381461033a578063a9b4be5f14610395578063ae094f65146103ec578063b2596a671461044f578063cd4e00251461049f578063e5a469701461050c578063e982247f14610567578063eaeb60e3146105be575b600080fd5b3480156100ec57600080fd5b50610121600480360381019080803573ffffffffffffffffffffffffffffffffffffffff169060200190929190505050610607565b6040518082815260200191505060405180910390f35b34801561014357600080fd5b5061014c61061f565b604051808273ffffffffffffffffffffffffffffffffffffffff1673ffffffffffffffffffffffffffffffffffffffff16815260200191505060405180910390f35b34801561019a57600080fd5b506101b960048036038101908080359060200190929190505050610645565b604051808273ffffffffffffffffffffffffffffffffffffffff1673ffffffffffffffffffffffffffffffffffffffff16815260200191505060405180910390f35b34801561020757600080fd5b5061023c600480360381019080803573ffffffffffffffffffffffffffffffffffffffff169060200190929190505050610683565b6040518082815260200191505060405180910390f35b34801561025e57600080fd5b5061027d6004803603810190808035906020019092919050505061069b565b60405180826000191660001916815260200191505060405180910390f35b3480156102a757600080fd5b506102d46004803603810190808035600019169060200190929190803590602001909291905050506106c6565b6040518082815260200191505060405180910390f35b3480156102f657600080fd5b50610315600480360381019080803590602001909291905050506107db565b6040518083600019166000191681526020018281526020019250505060405180910390f35b34801561034657600080fd5b50610393600480360381019080803573ffffffffffffffffffffffffffffffffffffffff16906020019092919080356000191690602001909291908035906020019092919050505061080e565b005b3480156103a157600080fd5b506103d6600480360381019080803573ffffffffffffffffffffffffffffffffffffffff1690602001909291905050506109fb565b6040518082815260200191505060405180910390f35b3480156103f857600080fd5b5061044d600480360381019080803573ffffffffffffffffffffffffffffffffffffffff169060200190929190803573ffffffffffffffffffffffffffffffffffffffff169060200190929190505050610a13565b005b34801561045b57600080fd5b5061047a60048036038101908080359060200190929190505050610b39565b6040518083600019166000191681526020018281526020019250505060405180910390f35b3480156104ab57600080fd5b506104ca60048036038101908080359060200190929190505050610b6c565b604051808273ffffffffffffffffffffffffffffffffffffffff1673ffffffffffffffffffffffffffffffffffffffff16815260200191505060405180910390f35b34801561051857600080fd5b50610565600480360381019080803573ffffffffffffffffffffffffffffffffffffffff169060200190929190803560001916906020019092919080359060200190929190505050610baa565b005b34801561057357600080fd5b5061057c610d96565b604051808273ffffffffffffffffffffffffffffffffffffffff1673ffffffffffffffffffffffffffffffffffffffff16815260200191505060405180910390f35b3480156105ca57600080fd5b506105e960048036038101908080359060200190929190505050610dbc565b60405180826000191660001916815260200191505060405180910390f35b60046020528060005260406000206000915090505481565b600760009054906101000a900473ffffffffffffffffffffffffffffffffffffffff1681565b60018181548110151561065457fe5b906000526020600020016000915054906101000a900473ffffffffffffffffffffffffffffffffffffffff1681565b60066020528060005260406000206000915090505481565b600080600a838154811015156106ad57fe5b9060005260206000200190508060000154915050919050565b60006106d0610de5565b6000600760009054906101000a900473ffffffffffffffffffffffffffffffffffffffff1673ffffffffffffffffffffffffffffffffffffffff163373ffffffffffffffffffffffffffffffffffffffff1614151561072e57600080fd5b602060405190810160405280866000191681525091506001600a839080600181540180825580915050906001820390600052602060002001600090919290919091506000820151816000019060001916905550500390507fa4245aa9555dfd76d6835d3e87a8ff1be1d37dd4c20b436a8206d6179b2583c78183600001516040518083815260200182600019166000191681526020019250505060405180910390a1809250505092915050565b6009818154811015156107ea57fe5b90600052602060002090600202016000915090508060000154908060010154905082565b600080600760009054906101000a900473ffffffffffffffffffffffffffffffffffffffff1673ffffffffffffffffffffffffffffffffffffffff163373ffffffffffffffffffffffffffffffffffffffff1614151561086d57600080fd5b600260008673ffffffffffffffffffffffffffffffffffffffff1673ffffffffffffffffffffffffffffffffffffffff168152602001908152602001600020915083826000018160001916905550848260010160006101000a81548173ffffffffffffffffffffffffffffffffffffffff021916908373ffffffffffffffffffffffffffffffffffffffff160217905550828260020181905550600160008690806001815401808255809150509060018203906000526020600020016000909192909190916101000a81548173ffffffffffffffffffffffffffffffffffffffff021916908373ffffffffffffffffffffffffffffffffffffffff16021790555003905082600c6000838152602001908152602001600020819055507faba1c0bcc38f5f5f691ba80b897d0f9d90d5ac263956cfd815bbc15fce681eda8582604051808373ffffffffffffffffffffffffffffffffffffffff1673ffffffffffffffffffffffffffffffffffffffff1681526020018281526020019250505060405180910390a15050505050565b60056020528060005260406000206000915090505481565b600760009054906101000a900473ffffffffffffffffffffffffffffffffffffffff1673ffffffffffffffffffffffffffffffffffffffff163373ffffffffffffffffffffffffffffffffffffffff16141515610a6f57600080fd5b81600760006101000a81548173ffffffffffffffffffffffffffffffffffffffff021916908373ffffffffffffffffffffffffffffffffffffffff1602179055507f15ef239734d3fbb5ab93a2c3f3a83f8281acf56a54602adf49223918676fea87600760009054906101000a900473ffffffffffffffffffffffffffffffffffffffff16604051808273ffffffffffffffffffffffffffffffffffffffff1673ffffffffffffffffffffffffffffffffffffffff16815260200191505060405180910390a15050565b600b81815481101515610b4857fe5b90600052602060002090600202016000915090508060000154908060010154905082565b600081815481101515610b7b57fe5b906000526020600020016000915054906101000a900473ffffffffffffffffffffffffffffffffffffffff1681565b600080600760009054906101000a900473ffffffffffffffffffffffffffffffffffffffff1673ffffffffffffffffffffffffffffffffffffffff163373ffffffffffffffffffffffffffffffffffffffff16141515610c0957600080fd5b600360008673ffffffffffffffffffffffffffffffffffffffff1673ffffffffffffffffffffffffffffffffffffffff168152602001908152602001600020915083826000018160001916905550848260010160006101000a81548173ffffffffffffffffffffffffffffffffffffffff021916908373ffffffffffffffffffffffffffffffffffffffff1602179055508282600201819055506001808690806001815401808255809150509060018203906000526020600020016000909192909190916101000a81548173ffffffffffffffffffffffffffffffffffffffff021916908373ffffffffffffffffffffffffffffffffffffffff16021790555003905082600e6000838152602001908152602001600020819055507fdcd082c8183cb885d5adc4005dca474edcb1c4bc8ab77ee26e7d80f7512b79008582604051808373ffffffffffffffffffffffffffffffffffffffff1673ffffffffffffffffffffffffffffffffffffffff1681526020018281526020019250505060405180910390a15050505050565b600860009054906101000a900473ffffffffffffffffffffffffffffffffffffffff1681565b600a81815481101515610dcb57fe5b906000526020600020016000915090508060000154905081565b6020604051908101604052806000801916815250905600a165627a7a72305820e9b850760022877191298855e83753101d72793c2cebb65ce4110998c383a4770029",
  "source": "pragma solidity ^0.4.24;\n\n/**\n\nThis is the contract for the schoolchain dapp application,\nthis contract aims to provide the following functionality\naccording to simulation based on actual educational\ninfrastructure.\n\nThese infrastructural entities include the following\n- Departments\n- Levels\n- Schools\n- Proposals\n- Votes\n- School Organizations\n- Session Periods\n- Fees and Payments\n\nsome off these entites which would be found re-occuring again\nand again would be represented as structs. This aims to make\nsure they are widely reusable\n\n\nFunctions that we would come arrow all through the dapp\nincludes the followings.\n- Admission of students\n- Payment of school fees (this is based on session periods)\n- Elect Department Lead (proposal)\n- Addition / Removal of student address to Department list (restricted)\n\n\n*/\n\n// import from open zeppline\n// import \"openzeppelin-solidity/contracts/math/SafeMath.sol\";\nimport \"./SchoolChainBase.sol\";\n\n\ncontract SchoolChainCore is SchoolChainBase {\n\n    function SchoolChainCore (address _proposedVCAddress) public {\n       vc = msg.sender;\n    }\n}\n",
  "sourcePath": "/Users/mozartted/Projects/Legobox/SchoolChain/backend/contracts/SchoolChainCore.sol",
  "compiler": {
    "name": "solc",
    "version": "0.4.24+commit.e67f0147.Emscripten.clang"
  },
  "schemaVersion": "2.0.1",
  "updatedAt": "2018-09-13T12:21:56.084Z"
}