{
  "contractName": "SchoolChainCore",
  "abi": [
    {
      "constant": false,
      "inputs": [
        {
          "name": "_name",
          "type": "uint256"
        },
        {
          "name": "_generalFee",
          "type": "uint256"
        }
      ],
      "name": "_createLevel",
      "outputs": [
        {
          "name": "",
          "type": "uint256"
        }
      ],
      "payable": false,
      "stateMutability": "nonpayable",
      "type": "function"
    },
    {
      "constant": true,
      "inputs": [
        {
          "name": "",
          "type": "address"
        }
      ],
      "name": "lecturerIds",
      "outputs": [
        {
          "name": "",
          "type": "uint256"
        }
      ],
      "payable": false,
      "stateMutability": "view",
      "type": "function"
    },
    {
      "constant": true,
      "inputs": [],
      "name": "vc",
      "outputs": [
        {
          "name": "",
          "type": "address"
        }
      ],
      "payable": false,
      "stateMutability": "view",
      "type": "function"
    },
    {
      "constant": false,
      "inputs": [
        {
          "name": "id",
          "type": "uint256"
        }
      ],
      "name": "checkLevelFee",
      "outputs": [
        {
          "name": "fee",
          "type": "uint256"
        }
      ],
      "payable": false,
      "stateMutability": "nonpayable",
      "type": "function"
    },
    {
      "constant": false,
      "inputs": [
        {
          "name": "department",
          "type": "uint256"
        },
        {
          "name": "sessionID",
          "type": "uint256"
        }
      ],
      "name": "payTuitionCurrentSession",
      "outputs": [
        {
          "name": "val",
          "type": "bool"
        }
      ],
      "payable": true,
      "stateMutability": "payable",
      "type": "function"
    },
    {
      "constant": true,
      "inputs": [
        {
          "name": "",
          "type": "uint256"
        }
      ],
      "name": "lecturerAccounts",
      "outputs": [
        {
          "name": "",
          "type": "address"
        }
      ],
      "payable": false,
      "stateMutability": "view",
      "type": "function"
    },
    {
      "constant": true,
      "inputs": [
        {
          "name": "",
          "type": "address"
        }
      ],
      "name": "departmentLeads",
      "outputs": [
        {
          "name": "",
          "type": "uint256"
        }
      ],
      "payable": false,
      "stateMutability": "view",
      "type": "function"
    },
    {
      "constant": false,
      "inputs": [
        {
          "name": "_department",
          "type": "uint256"
        }
      ],
      "name": "_getDepartment",
      "outputs": [
        {
          "name": "",
          "type": "bytes32"
        }
      ],
      "payable": false,
      "stateMutability": "nonpayable",
      "type": "function"
    },
    {
      "constant": false,
      "inputs": [
        {
          "name": "_name",
          "type": "bytes32"
        },
        {
          "name": "depositsToDepartment",
          "type": "uint256"
        }
      ],
      "name": "_createDepartment",
      "outputs": [
        {
          "name": "",
          "type": "uint256"
        }
      ],
      "payable": false,
      "stateMutability": "nonpayable",
      "type": "function"
    },
    {
      "constant": false,
      "inputs": [
        {
          "name": "_sessionID",
          "type": "uint256"
        }
      ],
      "name": "payHostelAccomodations",
      "outputs": [
        {
          "name": "val",
          "type": "bool"
        }
      ],
      "payable": true,
      "stateMutability": "payable",
      "type": "function"
    },
    {
      "constant": false,
      "inputs": [
        {
          "name": "_name",
          "type": "bytes32"
        },
        {
          "name": "hostelFee",
          "type": "uint256"
        }
      ],
      "name": "_createSession",
      "outputs": [],
      "payable": false,
      "stateMutability": "nonpayable",
      "type": "function"
    },
    {
      "constant": true,
      "inputs": [
        {
          "name": "",
          "type": "uint256"
        }
      ],
      "name": "sessions",
      "outputs": [
        {
          "name": "name",
          "type": "bytes32"
        },
        {
          "name": "sessionID",
          "type": "uint256"
        },
        {
          "name": "sessionSchoolFeesTotal",
          "type": "uint256"
        },
        {
          "name": "hostelFee",
          "type": "uint256"
        },
        {
          "name": "hostelFeesTotal",
          "type": "uint256"
        },
        {
          "name": "exists",
          "type": "bool"
        }
      ],
      "payable": false,
      "stateMutability": "view",
      "type": "function"
    },
    {
      "constant": true,
      "inputs": [
        {
          "name": "",
          "type": "address"
        }
      ],
      "name": "studentIds",
      "outputs": [
        {
          "name": "",
          "type": "uint256"
        }
      ],
      "payable": false,
      "stateMutability": "view",
      "type": "function"
    },
    {
      "constant": false,
      "inputs": [
        {
          "name": "_newVC",
          "type": "address"
        },
        {
          "name": "_formerVC",
          "type": "address"
        }
      ],
      "name": "setVC",
      "outputs": [],
      "payable": false,
      "stateMutability": "nonpayable",
      "type": "function"
    },
    {
      "constant": true,
      "inputs": [
        {
          "name": "",
          "type": "uint256"
        }
      ],
      "name": "levels",
      "outputs": [
        {
          "name": "levelID",
          "type": "uint256"
        },
        {
          "name": "generalFees",
          "type": "uint256"
        }
      ],
      "payable": false,
      "stateMutability": "view",
      "type": "function"
    },
    {
      "constant": true,
      "inputs": [
        {
          "name": "",
          "type": "uint256"
        }
      ],
      "name": "studentAccounts",
      "outputs": [
        {
          "name": "",
          "type": "address"
        }
      ],
      "payable": false,
      "stateMutability": "view",
      "type": "function"
    },
    {
      "constant": false,
      "inputs": [
        {
          "name": "_lecturerAddress",
          "type": "address"
        },
        {
          "name": "lecturerName",
          "type": "bytes32"
        },
        {
          "name": "departmentID",
          "type": "uint256"
        }
      ],
      "name": "_createLecturer",
      "outputs": [],
      "payable": false,
      "stateMutability": "nonpayable",
      "type": "function"
    },
    {
      "constant": true,
      "inputs": [],
      "name": "dean",
      "outputs": [
        {
          "name": "",
          "type": "address"
        }
      ],
      "payable": false,
      "stateMutability": "view",
      "type": "function"
    },
    {
      "constant": true,
      "inputs": [
        {
          "name": "",
          "type": "uint256"
        }
      ],
      "name": "departments",
      "outputs": [
        {
          "name": "name",
          "type": "bytes32"
        }
      ],
      "payable": false,
      "stateMutability": "view",
      "type": "function"
    },
    {
      "constant": false,
      "inputs": [
        {
          "name": "studentName",
          "type": "bytes32"
        },
        {
          "name": "departmentID",
          "type": "uint256"
        },
        {
          "name": "_studentAddress",
          "type": "address"
        },
        {
          "name": "levelID",
          "type": "uint256"
        }
      ],
      "name": "_createStudent",
      "outputs": [],
      "payable": false,
      "stateMutability": "nonpayable",
      "type": "function"
    },
    {
      "constant": false,
      "inputs": [
        {
          "name": "studentAddress",
          "type": "address"
        }
      ],
      "name": "checkSchoolFees",
      "outputs": [
        {
          "name": "val",
          "type": "bool"
        }
      ],
      "payable": false,
      "stateMutability": "nonpayable",
      "type": "function"
    },
    {
      "inputs": [
        {
          "name": "_proposedVCAddress",
          "type": "address"
        }
      ],
      "payable": false,
      "stateMutability": "nonpayable",
      "type": "constructor"
    },
    {
      "anonymous": false,
      "inputs": [
        {
          "indexed": false,
          "name": "name",
          "type": "bytes32"
        },
        {
          "indexed": false,
          "name": "department",
          "type": "uint256"
        },
        {
          "indexed": false,
          "name": "SessionID",
          "type": "uint256"
        },
        {
          "indexed": false,
          "name": "studentAddress",
          "type": "address"
        }
      ],
      "name": "SchoolFeesPaid",
      "type": "event"
    },
    {
      "anonymous": false,
      "inputs": [
        {
          "indexed": false,
          "name": "name",
          "type": "bytes32"
        },
        {
          "indexed": false,
          "name": "SessionID",
          "type": "uint256"
        },
        {
          "indexed": false,
          "name": "studentAddress",
          "type": "address"
        }
      ],
      "name": "SchoolHostelFeesPaid",
      "type": "event"
    },
    {
      "anonymous": false,
      "inputs": [
        {
          "indexed": false,
          "name": "_student",
          "type": "address"
        },
        {
          "indexed": false,
          "name": "studentID",
          "type": "uint256"
        }
      ],
      "name": "StudentCreated",
      "type": "event"
    },
    {
      "anonymous": false,
      "inputs": [
        {
          "indexed": false,
          "name": "_lecturer",
          "type": "address"
        },
        {
          "indexed": false,
          "name": "lecturerID",
          "type": "uint256"
        }
      ],
      "name": "LecturerCreated",
      "type": "event"
    },
    {
      "anonymous": false,
      "inputs": [
        {
          "indexed": false,
          "name": "departmentId",
          "type": "uint256"
        },
        {
          "indexed": false,
          "name": "name",
          "type": "bytes32"
        }
      ],
      "name": "DepartmentCreated",
      "type": "event"
    },
    {
      "anonymous": false,
      "inputs": [
        {
          "indexed": false,
          "name": "levelId",
          "type": "uint256"
        },
        {
          "indexed": false,
          "name": "_name",
          "type": "uint256"
        },
        {
          "indexed": false,
          "name": "generalFees",
          "type": "uint256"
        }
      ],
      "name": "LevelCreated",
      "type": "event"
    },
    {
      "anonymous": false,
      "inputs": [
        {
          "indexed": false,
          "name": "sessionID",
          "type": "uint256"
        },
        {
          "indexed": false,
          "name": "name",
          "type": "bytes32"
        },
        {
          "indexed": false,
          "name": "hostelFee",
          "type": "uint256"
        }
      ],
      "name": "NewSessionCreated",
      "type": "event"
    },
    {
      "anonymous": false,
      "inputs": [
        {
          "indexed": false,
          "name": "_vc",
          "type": "address"
        }
      ],
      "name": "NewVC",
      "type": "event"
    }
  ],
  "bytecode": "0x608060405234801561001057600080fd5b50604051602080611b7e8339810180604052810190808051906020019092919050505033600a60006101000a81548173ffffffffffffffffffffffffffffffffffffffff021916908373ffffffffffffffffffffffffffffffffffffffff16021790555050611afa806100846000396000f30060806040526004361061011d576000357c0100000000000000000000000000000000000000000000000000000000900463ffffffff1680630899ee1414610122578063157e209e1461016d578063188cdb37146101c45780632a2d0d0a1461021b5780634044d6561461025c5780634bd5e6801461029e5780634bfa314c1461030b5780634c7d54a41461036257806358480582146103ab5780635f9039f1146103fa578063748dfea31461043257806383c4b7a31461046d578063a9b4be5f146104dd578063ae094f6514610534578063b2596a6714610597578063cd4e0025146105df578063e5a469701461064c578063e982247f146106a7578063eaeb60e3146106fe578063ed84b53c14610747578063ef4c61b5146107ac575b600080fd5b34801561012e57600080fd5b506101576004803603810190808035906020019092919080359060200190929190505050610807565b6040518082815260200191505060405180910390f35b34801561017957600080fd5b506101ae600480360381019080803573ffffffffffffffffffffffffffffffffffffffff169060200190929190505050610935565b6040518082815260200191505060405180910390f35b3480156101d057600080fd5b506101d961094d565b604051808273ffffffffffffffffffffffffffffffffffffffff1673ffffffffffffffffffffffffffffffffffffffff16815260200191505060405180910390f35b34801561022757600080fd5b5061024660048036038101908080359060200190929190505050610973565b6040518082815260200191505060405180910390f35b61028460048036038101908080359060200190929190803590602001909291905050506109c8565b604051808215151515815260200191505060405180910390f35b3480156102aa57600080fd5b506102c960048036038101908080359060200190929190505050610cfd565b604051808273ffffffffffffffffffffffffffffffffffffffff1673ffffffffffffffffffffffffffffffffffffffff16815260200191505060405180910390f35b34801561031757600080fd5b5061034c600480360381019080803573ffffffffffffffffffffffffffffffffffffffff169060200190929190505050610d3b565b6040518082815260200191505060405180910390f35b34801561036e57600080fd5b5061038d60048036038101908080359060200190929190505050610d53565b60405180826000191660001916815260200191505060405180910390f35b3480156103b757600080fd5b506103e4600480360381019080803560001916906020019092919080359060200190929190505050610d7e565b6040518082815260200191505060405180910390f35b61041860048036038101908080359060200190929190505050610e93565b604051808215151515815260200191505060405180910390f35b34801561043e57600080fd5b5061046b60048036038101908080356000191690602001909291908035906020019092919050505061119a565b005b34801561047957600080fd5b5061049860048036038101908080359060200190929190505050611405565b60405180876000191660001916815260200186815260200185815260200184815260200183815260200182151515158152602001965050505050505060405180910390f35b3480156104e957600080fd5b5061051e600480360381019080803573ffffffffffffffffffffffffffffffffffffffff16906020019092919050505061145d565b6040518082815260200191505060405180910390f35b34801561054057600080fd5b50610595600480360381019080803573ffffffffffffffffffffffffffffffffffffffff169060200190929190803573ffffffffffffffffffffffffffffffffffffffff169060200190929190505050611475565b005b3480156105a357600080fd5b506105c26004803603810190808035906020019092919050505061159b565b604051808381526020018281526020019250505060405180910390f35b3480156105eb57600080fd5b5061060a600480360381019080803590602001909291905050506115ce565b604051808273ffffffffffffffffffffffffffffffffffffffff1673ffffffffffffffffffffffffffffffffffffffff16815260200191505060405180910390f35b34801561065857600080fd5b506106a5600480360381019080803573ffffffffffffffffffffffffffffffffffffffff16906020019092919080356000191690602001909291908035906020019092919050505061160c565b005b3480156106b357600080fd5b506106bc6117f8565b604051808273ffffffffffffffffffffffffffffffffffffffff1673ffffffffffffffffffffffffffffffffffffffff16815260200191505060405180910390f35b34801561070a57600080fd5b506107296004803603810190808035906020019092919050505061181e565b60405180826000191660001916815260200191505060405180910390f35b34801561075357600080fd5b506107aa600480360381019080803560001916906020019092919080359060200190929190803573ffffffffffffffffffffffffffffffffffffffff16906020019092919080359060200190929190505050611847565b005b3480156107b857600080fd5b506107ed600480360381019080803573ffffffffffffffffffffffffffffffffffffffff169060200190929190505050611a3e565b604051808215151515815260200191505060405180910390f35b6000610811611a61565b6000600a60009054906101000a900473ffffffffffffffffffffffffffffffffffffffff1673ffffffffffffffffffffffffffffffffffffffff163373ffffffffffffffffffffffffffffffffffffffff1614151561086f57600080fd5b6040805190810160405280868152602001670de0b6b3a764000086028152509150600160048390806001815401808255809150509060018203906000526020600020906002020160009091929091909150600082015181600001556020820151816001015550500390507f7cb234afa1530eb3b13f70db1e2f4de55ef9b938714a32e7e600588e631c8b998186670de0b6b3a7640000870260405180848152602001838152602001828152602001935050505060405180910390a1809250505092915050565b60076020528060005260406000206000915090505481565b600a60009054906101000a900473ffffffffffffffffffffffffffffffffffffffff1681565b600061097d611a61565b60048381548110151561098c57fe5b90600052602060002090600202016040805190810160405290816000820154815260200160018201548152505090508060200151915050919050565b6000806000803373ffffffffffffffffffffffffffffffffffffffff16600560003373ffffffffffffffffffffffffffffffffffffffff1673ffffffffffffffffffffffffffffffffffffffff16815260200190815260200160002060010160009054906101000a900473ffffffffffffffffffffffffffffffffffffffff1673ffffffffffffffffffffffffffffffffffffffff16141515610a6a57600080fd5b600560003373ffffffffffffffffffffffffffffffffffffffff1673ffffffffffffffffffffffffffffffffffffffff16815260200190815260200160002092503373ffffffffffffffffffffffffffffffffffffffff168360010160009054906101000a900473ffffffffffffffffffffffffffffffffffffffff1673ffffffffffffffffffffffffffffffffffffffff16141515610b0957600080fd5b600285815481101515610b1857fe5b906000526020600020906008020191508160050160009054906101000a900460ff1615610cef578160060160003373ffffffffffffffffffffffffffffffffffffffff1673ffffffffffffffffffffffffffffffffffffffff16815260200190815260200160002060009054906101000a900460ff16151515610b9a57600080fd5b60048360030154815481101515610bad57fe5b90600052602060002090600202019050348160010154141515610bcf57600080fd5b34826002016000828254019250508190555060018260060160003373ffffffffffffffffffffffffffffffffffffffff1673ffffffffffffffffffffffffffffffffffffffff16815260200190815260200160002060006101000a81548160ff0219169083151502179055507fbf8f1b32ac83fcf007320cbb64094208700a3484c9981c3774cab656df4d4b33836000015487878660010160009054906101000a900473ffffffffffffffffffffffffffffffffffffffff166040518085600019166000191681526020018481526020018381526020018273ffffffffffffffffffffffffffffffffffffffff1673ffffffffffffffffffffffffffffffffffffffff16815260200194505050505060405180910390a160019350610cf4565b600093505b50505092915050565b600181815481101515610d0c57fe5b906000526020600020016000915054906101000a900473ffffffffffffffffffffffffffffffffffffffff1681565b60096020528060005260406000206000915090505481565b600080600383815481101515610d6557fe5b9060005260206000200190508060000154915050919050565b6000610d88611a7b565b6000600a60009054906101000a900473ffffffffffffffffffffffffffffffffffffffff1673ffffffffffffffffffffffffffffffffffffffff163373ffffffffffffffffffffffffffffffffffffffff16141515610de657600080fd5b6020604051908101604052808660001916815250915060016003839080600181540180825580915050906001820390600052602060002001600090919290919091506000820151816000019060001916905550500390507fa4245aa9555dfd76d6835d3e87a8ff1be1d37dd4c20b436a8206d6179b2583c78183600001516040518083815260200182600019166000191681526020019250505060405180910390a1809250505092915050565b60008060003373ffffffffffffffffffffffffffffffffffffffff16600560003373ffffffffffffffffffffffffffffffffffffffff1673ffffffffffffffffffffffffffffffffffffffff16815260200190815260200160002060010160009054906101000a900473ffffffffffffffffffffffffffffffffffffffff1673ffffffffffffffffffffffffffffffffffffffff16141515610f3457600080fd5b600560003373ffffffffffffffffffffffffffffffffffffffff1673ffffffffffffffffffffffffffffffffffffffff16815260200190815260200160002091503373ffffffffffffffffffffffffffffffffffffffff168260010160009054906101000a900473ffffffffffffffffffffffffffffffffffffffff1673ffffffffffffffffffffffffffffffffffffffff16141515610fd357600080fd5b600284815481101515610fe257fe5b906000526020600020906008020190508060050160009054906101000a900460ff161561118e5780600301543414151561101b57600080fd5b8060070160003373ffffffffffffffffffffffffffffffffffffffff1673ffffffffffffffffffffffffffffffffffffffff16815260200190815260200160002060009054906101000a900460ff1615151561107657600080fd5b34816004016000828254019250508190555060018160070160003373ffffffffffffffffffffffffffffffffffffffff1673ffffffffffffffffffffffffffffffffffffffff16815260200190815260200160002060006101000a81548160ff0219169083151502179055507f2eb822e01007cca206ba635ce47a91cacb2b980acd30264a1084cbabce7d36828260000154858460010160009054906101000a900473ffffffffffffffffffffffffffffffffffffffff166040518084600019166000191681526020018381526020018273ffffffffffffffffffffffffffffffffffffffff1673ffffffffffffffffffffffffffffffffffffffff168152602001935050505060405180910390a160019250611193565b600092505b5050919050565b6111a2611a92565b600080600a60009054906101000a900473ffffffffffffffffffffffffffffffffffffffff1673ffffffffffffffffffffffffffffffffffffffff163373ffffffffffffffffffffffffffffffffffffffff1614151561120157600080fd5b60c060405190810160405280866000191681526020016000815260200160008152602001670de0b6b3a76400008602815260200160008152602001600115158152509250600091505b6000805490508210156112f3576112e5600160056000808681548110151561126e57fe5b9060005260206000200160009054906101000a900473ffffffffffffffffffffffffffffffffffffffff1673ffffffffffffffffffffffffffffffffffffffff1673ffffffffffffffffffffffffffffffffffffffff16815260200190815260200160002060030154611a4590919063ffffffff16565b50818060010192505061124a565b600160028490806001815401808255809150509060018203906000526020600020906008020160009091929091909150600082015181600001906000191690556020820151816001015560408201518160020155606082015181600301556080820151816004015560a08201518160050160006101000a81548160ff02191690831515021790555050500390508060028281548110151561139057fe5b9060005260206000209060080201600101819055507f02016c98a8df5500cb9079dea0c3beb4f7da41d7308c9ac930d75c00eb14b12d8186670de0b6b3a76400008702604051808481526020018360001916600019168152602001828152602001935050505060405180910390a15050505050565b60028181548110151561141457fe5b90600052602060002090600802016000915090508060000154908060010154908060020154908060030154908060040154908060050160009054906101000a900460ff16905086565b60086020528060005260406000206000915090505481565b600a60009054906101000a900473ffffffffffffffffffffffffffffffffffffffff1673ffffffffffffffffffffffffffffffffffffffff163373ffffffffffffffffffffffffffffffffffffffff161415156114d157600080fd5b81600a60006101000a81548173ffffffffffffffffffffffffffffffffffffffff021916908373ffffffffffffffffffffffffffffffffffffffff1602179055507f15ef239734d3fbb5ab93a2c3f3a83f8281acf56a54602adf49223918676fea87600a60009054906101000a900473ffffffffffffffffffffffffffffffffffffffff16604051808273ffffffffffffffffffffffffffffffffffffffff1673ffffffffffffffffffffffffffffffffffffffff16815260200191505060405180910390a15050565b6004818154811015156115aa57fe5b90600052602060002090600202016000915090508060000154908060010154905082565b6000818154811015156115dd57fe5b906000526020600020016000915054906101000a900473ffffffffffffffffffffffffffffffffffffffff1681565b600080600a60009054906101000a900473ffffffffffffffffffffffffffffffffffffffff1673ffffffffffffffffffffffffffffffffffffffff163373ffffffffffffffffffffffffffffffffffffffff1614151561166b57600080fd5b600660008673ffffffffffffffffffffffffffffffffffffffff1673ffffffffffffffffffffffffffffffffffffffff168152602001908152602001600020915083826000018160001916905550848260010160006101000a81548173ffffffffffffffffffffffffffffffffffffffff021916908373ffffffffffffffffffffffffffffffffffffffff1602179055508282600201819055506001808690806001815401808255809150509060018203906000526020600020016000909192909190916101000a81548173ffffffffffffffffffffffffffffffffffffffff021916908373ffffffffffffffffffffffffffffffffffffffff16021790555003905082600e6000838152602001908152602001600020819055507fdcd082c8183cb885d5adc4005dca474edcb1c4bc8ab77ee26e7d80f7512b79008582604051808373ffffffffffffffffffffffffffffffffffffffff1673ffffffffffffffffffffffffffffffffffffffff1681526020018281526020019250505060405180910390a15050505050565b600b60009054906101000a900473ffffffffffffffffffffffffffffffffffffffff1681565b60038181548110151561182d57fe5b906000526020600020016000915090508060000154905081565b600080600a60009054906101000a900473ffffffffffffffffffffffffffffffffffffffff1673ffffffffffffffffffffffffffffffffffffffff163373ffffffffffffffffffffffffffffffffffffffff161415156118a657600080fd5b600560008573ffffffffffffffffffffffffffffffffffffffff1673ffffffffffffffffffffffffffffffffffffffff168152602001908152602001600020915085826000018160001916905550838260010160006101000a81548173ffffffffffffffffffffffffffffffffffffffff021916908373ffffffffffffffffffffffffffffffffffffffff160217905550848260020181905550828260030181905550600160008590806001815401808255809150509060018203906000526020600020016000909192909190916101000a81548173ffffffffffffffffffffffffffffffffffffffff021916908373ffffffffffffffffffffffffffffffffffffffff16021790555003905084600c6000838152602001908152602001600020819055507faba1c0bcc38f5f5f691ba80b897d0f9d90d5ac263956cfd815bbc15fce681eda8482604051808373ffffffffffffffffffffffffffffffffffffffff1673ffffffffffffffffffffffffffffffffffffffff1681526020018281526020019250505060405180910390a1505050505050565b6000919050565b60008183019050828110151515611a5857fe5b80905092915050565b604080519081016040528060008152602001600081525090565b602060405190810160405280600080191681525090565b60c060405190810160405280600080191681526020016000815260200160008152602001600081526020016000815260200160001515815250905600a165627a7a7230582052d3c6ca2b1f58805764e6a0d63b6444695244be87f41f01b9aff7b3a1269b810029",
  "source": "pragma solidity ^0.4.24;\n\n/**\n\nThis is the contract for the schoolchain dapp application,\nthis contract aims to provide the following functionality\naccording to simulation based on actual educational\ninfrastructure.\n\nThese infrastructural entities include the following\n- Departments\n- Levels\n- Schools\n- Proposals\n- Votes\n- School Organizations\n- Session Periods\n- Fees and Payments\n\nsome off these entites which would be found re-occuring again\nand again would be represented as structs. This aims to make\nsure they are widely reusable\n\n\nFunctions that we would come arrow all through the dapp\nincludes the followings.\n- Admission of students\n- Payment of school fees (this is based on session periods)\n- Elect Department Lead (proposal)\n- Addition / Removal of student address to Department list (restricted)\n\n\n*/\n\n// import from open zeppline\n// import \"openzeppelin-solidity/contracts/math/SafeMath.sol\";\nimport \"./SchoolChainTransact.sol\";\n/* import \"./SchoolChainDemocracy.sol\"; */\n\ncontract SchoolChainCore is SchoolChainTransact {\n\n    constructor (\n      /* uint minimumQuorumForProposals,\n      uint minutesForDebate,\n      int marginOfVotesForMajority, */\n      address _proposedVCAddress\n    ) public {\n        // Assigning the vc of the school\n        vc = msg.sender;\n\n        /* changeVotingRules(minimumQuorumForProposals, minutesForDebate, marginOfVotesForMajority); */\n        // creating the levels of the school\n        // for (uint i=0; i < 5 ; i++) {\n        // // do something\n        //     _createLevel(SchoolChainCore.add(i));\n        // }\n\n    }\n}\n",
  "sourcePath": "/Users/mozartted/Projects/Legobox/SchoolChain/backend/contracts/SchoolChainCore.sol",
  "compiler": {
    "name": "solc",
    "version": "0.4.24+commit.e67f0147.Emscripten.clang"
  },
  "schemaVersion": "2.0.1",
  "updatedAt": "2018-10-22T09:06:39.547Z"
}